:100000000C9446000C9465000C9465000C946500FB
:100010000C9465000C9465000C9465000C946500CC
:100020000C9465000C9465000C9465000C946500BC
:100030000C9465000C9465000C9465000C946500AC
:100040000C9465000C9465000C9465000C9465009C
:100050000C9465000C9465000C9465000C9465008C
:100060000C9465000C9465000C9465000C9465007C
:100070000C9465000C9465000C9465000C9465006C
:100080000C9465000C9465000C94650011241FBE4F
:10009000CFEFD0E4DEBFCDBF11E0A0E0B1E0E6E8F5
:1000A000F2E000E00BBF02C007900D92AE30B10746
:1000B000D9F721E0AEE0B1E001C01D92A231B20754
:1000C000E1F70E940B010C9441010C940000CF93C6
:1000D000DF9300D01F92CDB7DEB789837B836A831D
:1000E00089818A3031F48A819B81BC018DE00E9434
:1000F000670080EC90E0FC018081882F90E08072A6
:100100009927892BB1F386EC90E02981FC012083AB
:1001100080E090E00F900F900F90DF91CF910895C5
:10012000CF93DF93CDB7DEB780911001909111018D
:100130008130910581F08130910520F0029709F41A
:100140004DC065C081E090E0909311018093100153
:1001500010920E015CC080910F01882339F481E078
:1001600090E090931101809310014EC080910F0197
:10017000813009F049C080910E01833050F08091A8
:100180000E01893130F480910E01880F80930E01A9
:100190001EC080910E01803321F480E280930E0115
:1001A00016C080910E01803219F410920E010FC01A
:1001B00080910E01882321F481E080930E0107C015
:1001C00080910E01813019F483E080930E0182E06A
:1001D00090E0909311018093100116C080910F015F
:1001E000813039F482E090E0909311018093100106
:1001F0000DC080910F01882349F481E090E0909335
:1002000011018093100102C0000001C00000000035
:10021000DF91CF910895CF93DF93CDB7DEB781E221
:1002200090E0FC01108282E290E02FEFFC0120833D
:1002300084E290E02FEFFC01208385E290E0FC0156
:100240001082109211011092100110920E01109262
:100250000F0180E290E0FC018081882F90E08170A6
:10026000992721E0892B09F020E0822F80930F014C
:100270000E94900085E290E020910E01FC01208315
:06028000E8CFF894FFCF67
:0E028600000000020000000067000000000001
:00000001FF
